:020000040000fa
:080000000002040000000000f2
:020000040000fa
:100008009a0200009a0200009a0200009a02000078
:100018009a0200009a0200009a0200009a02000068
:100028009a0200009a0200009a0200009a02000058
:100038009a0200009a0200009a0200009a02000048
:100048009a0200009a0200009a0200009a02000038
:100058009a0200009a0200009a0200009a02000028
:100068009a0200009a0200009a02000000060000ae
:100078009a0200009a0200009a0200009a02000008
:100088009a0200009a0200009a0200009a020000f8
:100098009a0200009a0200009a0200009a020000e8
:1000a8009a0200009a0200009a0200009a020000d8
:1000b8009a0200009a0200009a0200009a020000c8
:1000c8009a0200009a0200009a0200009a020000b8
:1000d8009a0200009a0200009a0200009a020000a8
:1000e8009a0200009a0200009a0200009a02000098
:1000f8009a0200009a0200009a0200009a02000088
:100108009a0200009a0200009a0200009a02000077
:100118009a0200009a0200009a0200009a02000067
:100128009a0200009a0200009a0200009a02000057
:100138009a0200009a0200009a0200009a02000047
:100148009a0200009a0200009a0200009a02000037
:100158009a0200009a0200009a0200009a02000027
:100168009a0200009a0200009a0200009a02000017
:100178009a0200009a0200009a0200009a02000007
:100188009a0200009a0200009a0200009a020000f7
:100198009a0200009a0200009a0200009a020000e7
:1001a8009a0200009a0200009a0200009a020000d7
:1001b8009a0200009a0200009a0200009a020000c7
:1001c8009a0200009a0200009a0200009a020000b7
:1001d8009a0200009a0200009a0200009a020000a7
:1001e8009a0200009a0200009a0200009a02000097
:0801f8009a0200009a020000c7
:020000040000fa
:100208009a0200009a0200009a0200009a02000076
:100218009a0200009a0200009a0200009a02000066
:100228009a0200009a0200009a0200009a02000056
:100238009a0200009a0200009a0200009a02000046
:100248009a0200009a0200009a0200009a02000036
:100258009a0200009a0200009a0200009a02000026
:100268009a0200009a0200009a02000000060000ac
:100278009a0200009a0200009a0200009a02000006
:100288009a0200009a0200009a0200009a020000f6
:100298009a0200009a0200009a0200009a020000e6
:1002a8009a0200009a0200009a0200009a020000d6
:1002b8009a0200009a0200009a0200009a020000c6
:1002c8009a0200009a0200009a0200009a020000b6
:1002d8009a0200009a0200009a0200009a020000a6
:1002e8009a0200009a0200009a0200009a02000096
:1002f8009a0200009a0200009a0200009a02000086
:100308009a0200009a0200009a0200009a02000075
:100318009a0200009a0200009a0200009a02000065
:100328009a0200009a0200009a0200009a02000055
:100338009a0200009a0200009a0200009a02000045
:100348009a0200009a0200009a0200009a02000035
:100358009a0200009a0200009a0200009a02000025
:100368009a0200009a0200009a0200009a02000015
:100378009a0200009a0200009a0200009a02000005
:100388009a0200009a0200009a0200009a020000f5
:100398009a0200009a0200009a0200009a020000e5
:1003a8009a0200009a0200009a0200009a020000d5
:1003b8009a0200009a0200009a0200009a020000c5
:1003c8009a0200009a0200009a0200009a020000b5
:1003d8009a0200009a0200009a0200009a020000a5
:1003e8009a0200009a0200009a0200009a02000095
:0803f8009a0200009a020000c5
:020000040000fa
:100400006f8120000e7f22000e0188000000000096
:10041000000020000000e000020032000001200087
:10042000200288000c000700c06c200001002000a2
:1004300011000700000020000000e0000200320070
:10044000000002000000000096050200000000000d
:100450000040da000000fe004440a9000000200037
:100460000000e0000300320000002000a00188002e
:100470004440a80000000600910188008000780038
:100480000000eb0015003700e280400032a0b4000d
:100490009101ba00e280400032a0b4009102ba009b
:1004a000e280400032a0b4000002eb00472bde00e7
:1004b000f507b200602ce10004003a000059eb009f
:1004c0008301e900fdff3e00040037006128e100e0
:1004d000010032000082eb00040007001101ba00a5
:1004e0000200e000e8ff3a00000006003159ba00bf
:1004f0008301e9000c0032002159ba008301e900b0
:10050000080032000400e00003003a00e2804000ee
:1005100032a0b400f5ff370011d9ba008301e90019
:10052000faff3a008100e800e180400032a0b40008
:0c053000000006000040da000000fe00a1
:020000040000fa
:10053c000800fa00004f7800110798002207980075
:10054c00330798003e029000e00f52000500320085
:10055c009e4278000582fb004c22dd006416880068
:10056c00070037009e4278000582fb004422de0023
:10057c00044278000482fb004c22dd0064168800e3
:10058c001e02900004427800614262000482fb006b
:10059c00610262004722dd0066168000f5f72f002d
:1005ac0085026300050272006416880010002000aa
:1005bc00b8010700ccc2a80010002000b50107004c
:1005cc00ccc2a90010002000b20107002e00900040
:1005dc00b00107000080fa00000006000600fa00d7
:1005ec00004f780011079800220798008001eb005b
:1005fc002e0190009e0090001e407800ccff07005a
:10060c00130020002e0190009e0090001e407800e8
:10061c00c7ff07000080fa00000006000200fa0085
:10062c00004f78001e427800e202200011002000ea
:10063c0004407800e9ff07000080fa000000060083
:10064c000000fa00c8e2a900c8c2a900c9e2a900ca
:10065c00c9c2a900c9a2a900c982a900c05d200015
:10066c008c01070013002000420021008000eb00e9
:10067c0030c0b300aeff070013002000420620007c
:10068c008000eb0030c0b300a9ff070082022000fd
:10069c008000eb0020c3b300d0ff070082022000d3
:1006ac008000eb0080c2b300ccff07008202200068
:1006bc008000eb0080c0b300c8ff070082662000fa
:1006cc008000eb0010c0b300c4ff070082022000c2
:1006dc008000eb0060c0b300c0ff07008202200066
:1006ec008000eb00c0c0b300bcff07000080fa0024
:1006fc00000006000400fa00100798000002eb004e
:10070c00040f7800070037001e0278009e0290004c
:10071c00048242001442780004407800bfff0700b6
:10072c001e0fe8001e0278009e0290000482420018
:10073c0014427800e04f5200f3ff3a000080fa00b8
:10074c00000006000000fa00826620008000eb002a
:10075c0010c0b300a1ff07000080fa0000000600e3
:10076c000400fa0020479800314798000408200044
:10077c00040f78003e4290000482fb001e0f4200e2
:10078c002e429000e14f520002003a000404200077
:10079c001e0f42001e0278000442780082022000e4
:1007ac008000eb00044078008cff070082022000e0
:1007bc008000eb0000ccb30088ff07000080fa003b
:1007cc00000006000400fa0010079800ddff070087
:1007dc000002eb00040f7800150037001e027800b1
:1007ec00e80f5200080032001e0278009e029000b2
:1007fc0004824200144278000440780087ff07000e
:10080c001e0fe8000a0037008040eb0010c0b30058
:10081c00d3ff07001e0278009e0290000482420063
:10082c0014427800044078007cff07001e0fe8009b
:10083c001e0278009e02900004824200144278004e
:10084c00e04f5200e5ff3a000080fa00000006007d
:10085c000000fa00c002a900c022a900c842a900e9
:10086c00c862a900c602a800c622a800ce42a800f1
:10087c00ce62a800c922a800c942a800c962a8007b
:10088c006aa0a8006a00a80069e0a8008660a90018
:10089c0062a0a8006200a80061e0a8009660a80011
:1008ac000080fa00000006000400fa0000c2eb0011
:1008bc00044f78000002eb0014079800c402a90052
:1008cc00c422a800cc42a800cc62a800a000200042
:1008dc0008010700551680000420200004826200e5
:1008ec00e00f520005003a0014c3b300044f780027
:1008fc001e0290000402e8001407980055168000b0
:10090c000440200004826200e00f520005003a000f
:10091c0024c3b300044f78001e0290000402e800c8
:10092c001407980055168000048020000482620091
:10093c00e00f520005003a0034c3b300044f7800b6
:10094c001e0290000402e80014079800c402a800dc
:10095c00c422a900a0002000e60007005516800064
:10096c000420200004826200e00f520005003a00cf
:10097c0044c3b300044f78001e0290000402e80048
:10098c001407980055168000044020000482620071
:10099c00e00f520005003a0054c3b300044f780036
:1009ac001e0290000402e8001407980055168000ff
:1009bc000480200004826200e00f520005003a001f
:1009cc0064c3b300044f78001e0290000402e800d8
:1009dc0014079800c422a800cc42a900a000200053
:1009ec00c400070055168000042020000482620019
:1009fc00e00f520005003a0074c3b300044f7800b6
:100a0c001e0290000402e80014079800551680009e
:100a1c000440200004826200e00f520005003a00fe
:100a2c0084c3b300044f78001e0290000402e80057
:100a3c001407980055168000048020000482620080
:100a4c00e00f520005003a0094c3b300044f780045
:100a5c001e0290000402e80014079800cc42a80083
:100a6c00cc62a900a0002000a2000700551680004f
:100a7c000420200004826200e00f520005003a00be
:100a8c00a4c2b300044f78001e0290000402e800d8
:100a9c001407980055168000044020000482620060
:100aac00e00f520005003a0004c3b300044f780075
:100abc001e0290000402e8001407980055168000ee
:100acc000480200004826200e00f520005003a000e
:100adc0034c2b300044f78001e0290000402e800f8
:100aec0014079800c402a900c422a900cc42a90092
:100afc00cc62a900a00020007e0007001e0290001e
:100b0c00e10f52000200340000c2eb00044f7800e9
:100b1c001e427800044078000080fa0000000600b5
:100b2c000000fa00881f780049ff0700c4fe070088
:100b3c0004ff07000002eb00044088000440800022
:100b4c00e10f520006003200e10f520003003900a1
:100b5c00e20f52000e003200f8ff3700240037007d
:100b6c00a840800050ff070000427800258020003c
:100b7c0085024400844a7800a44080000402e80006
:100b8c00a44088002400200004408800180037008e
:100b9c00a44080008402e9002480200004824200ea
:100bac0014427800e14f42000800320020802000ff
:100bbc0004ff0700a4408000f00f520009003a0027
:100bcc000002eb00a440880006003700a44080001f
:100bdc00e00f520003003200a44080000402e90040
:100bec00a44088000002eb000440880000000000d4
:100bfc00d2ff37003600f800809fbe00829fbe00f7
:100c0c00849fbe00869fbe003400f80000002000c8
:100c1c00a00188000000fa008660a900a000200056
:100c2c003400070004408000e00f520011003a002d
:100c3c00551680000420200004826200e00f520050
:100c4c000a00320055168000044020000482620025
:100c5c00e00f520005003200551680000480200081
:100c6c0004826200e00f520002003a0014002000df
:100c7c00044088000080fa003400f9004f03be00e5
:100c8c004f02be004f01be004f00be003600f900ff
:100c9c00004006000200fa00000f78000002eb0092
:100cac00340888001e0278006e22b9000402780015
:100cbc0064088800840880000440a1000450a1004e
:100ccc008408880084e0a90011e1a800000000005d
:100cdc00250480000408200004826200e00f52000a
:100cec00fbff320084e0a90011e1a9000080fa00aa
:100cfc00000006000200fa00000f78000002eb0072
:100d0c00040888009e0278009403200004aab9000d
:100d1c000402780014088800240880000440a00015
:100d2c000450a000240888008460a90005e1a800f4
:100d3c00000000002404800068026200e00f5200f2
:100d4c00fcff32008460a90005e1a9000080fa00d4
:100d5c00000006000200fa00f4232000040f7800c3
:100d6c001e02780014088800240880000440a000ab
:100d7c000450a000240888009460a8008460a90096
:0c0d8c0005e1a8000080fa00000006004d
:020000040000fa
:100d9800000800001600000000000000000000002d
:020000040000fa
:020000040001f9
:0457f800ad7b000085
:020000040000fa
:020000040001f9
:0457fc003f3f00002b
:00000001FF
